:100000000C9434000C9451000C9451000C94510049
:100010000C9451000C9451000C9451000C9451001C
:100020000C9451000C9451000C9451000C9451000C
:100030000C9451000C9451000C9451000C945100FC
:100040000C9451000C9451000C94C5000C94510078
:100050000C9451000C9451000C9451000C945100DC
:100060000C9451000C94510011241FBECFEFD4E02A
:10007000DEBFCDBF11E0A0E0B1E0E2EDF3E002C0F1
:1000800005900D92AE33B107D9F711E0AEE3B1E0C0
:1000900001C01D92AF3BB107E1F70E946F000C94C5
:1000A000E7010C940000389A8AB18C6C8AB91092DE
:1000B000C50080E48093C40088E98093C1007894EF
:1000C00083E085BD80E090E031E026EC35BB26BDC5
:1000D000A89BFECF019683309105C1F708950E9439
:1000E0005300409A83E085BD80E090E031E026EC4B
:1000F00035BB26BDA89BFECF01964BE0883B9407FD
:10010000B9F74098E0E0F1E007C08091C00085FFBA
:10011000FCCF9093C600319690819923B1F7FFCF21
:10012000AC0183E085BD20E030E091E086EC06C0C4
:1001300095BB86BDA89BFECF2F5F3F4F2417350789
:10014000B8F30895982F8091C00085FFFCCF90935D
:10015000C6000895FC0107C08091C00085FFFCCF58
:100160009093C600319690819923B1F70895E0E00D
:10017000F1E007C08091C00085FFFCCF9093C600DE
:10018000319690819923B1F708951F920F920FB67F
:100190000F9211242F933F934F935F936F937F930D
:1001A0008F939F93AF93BF93EF93FF939091C6006C
:1001B000892F81568A3108F490528091BE018F3781
:1001C00058F4903248F0E82FF0E0E25CFE4F908364
:1001D0008F5F8093BE01D5C09A3009F0D2C08EE304
:1001E00091E067E171E044E050E00E94D90100979E
:1001F000F1F4E0E0F1E007C08091C00085FFFCCFA2
:100200009093C600319690819923B1F7409A83E08C
:1002100085BD80E090E031E026EC35BB26BDA89B93
:10022000FECF019643E288329407B9F740988EE3F7
:1002300091E06CE171E044E050E00E94D901009748
:10024000F1F4E0E0F1E007C08091C00085FFFCCF51
:100250009093C600319690819923B1F75A9A83E022
:1002600085BD80E090E031E026EC35BB26BDA89B43
:10027000FECF01964FE180349407B9F75A988EE388
:1002800091E065E271E044E050E00E94D9010097FE
:10029000F1F4E0E0F1E007C08091C00085FFFCCF01
:1002A0009093C600319690819923B1F75B9A83E0D1
:1002B00085BD80E090E031E026EC35BB26BDA89BF3
:1002C000FECF019643E288329407B9F75B988EE33C
:1002D00091E06BE271E044E050E00E94D9010097A8
:1002E000F1F4E0E0F1E007C08091C00085FFFCCFB1
:1002F0009093C600319690819923B1F75E9A83E07E
:1003000085BD80E090E031E026EC35BB26BDA89BA2
:10031000FECF019641E08C329407B9F75E988EE3E8
:1003200091E063E371E044E050E00E94D90100975E
:10033000F1F4E0E0F1E007C08091C00085FFFCCF60
:100340009093C600319690819923B1F75F9A83E02C
:1003500085BD80E090E031E026EC35BB26BDA89B52
:10036000FECF019641E08C329407B9F75F988EE397
:1003700091E060E270E040E850E00E94D20110920B
:10038000BE01FF91EF91BF91AF919F918F917F91AE
:100390006F915F914F913F912F910F900FBE0F90F2
:1003A0001F901895DC0101C06D9341505040E0F75B
:1003B0000895FB01DC014150504030F08D910190D7
:1003C000801919F40020B9F7881B990B0895F89447
:0203D000FFCF5D
:1003D2004C696E6B204156523C2D3E575254353477
:1003E200474C204F4B0A0048454C50004144454C75
:1003F200414E5445004154524153004445524543F5
:0E040200484100495A515549455244410000B5
:00000001FF
